:020000040800F2
:10000000780600208901000891010008930100088A
:100010009501000897010008990100080000000000
:100020000000000000000000000000009B0100082C
:100030009D010008000000009F010008A1010008C8
:10004000A3010008A3010008A3010008A301000800
:10005000A3010008A3010008A3010008A3010008F0
:10006000A3010008A3010008A3010008A3010008E0
:10007000A3010008A3010008A3010008A3010008D0
:10008000A3010008A3010008A3010008A3010008C0
:10009000A3010008A3010008A3010008A3010008B0
:1000A000A3010008A3010008A3010008A3010008A0
:1000B000A3010008A3010008A3010008A301000890
:1000C000A3010008A3010008A3010008A301000880
:1000D000A3010008A3010008A3010008A301000870
:1000E000A3010008A3010008A301000800F002F822
:1000F00000F03AF80AA090E8000C82448344AAF188
:100100000107DA4501D100F02FF8AFF2090EBAE885
:100110000F0013F0010F18BFFB1A43F0010318473B
:100120000409000024090000103A24BF78C878C1EF
:10013000FAD8520724BF30C830C144BF04680C60ED
:10014000704700000023002400250026103A28BF35
:1001500078C1FBD8520728BF30C148BF0B60704739
:100160001FB51FBD10B510BD00F031F81146FFF7E7
:10017000F7FF00F00DFC00F04FF803B4FFF7F2FFBB
:1001800003BC00F053F800000948804709480047C5
:10019000FEE7FEE7FEE7FEE7FEE7FEE7FEE7FEE737
:1001A000FEE7FEE704480549054A064B7047000094
:1001B00051050008ED0000087800002078060020B6
:1001C000780200207802002070477047704775461B
:1001D00000F028F8AE4605006946534620F00700B7
:1001E000854618B020B5FFF7DDFFBDE820404FF091
:1001F00000064FF000074FF000084FF0000B21F011
:100200000701AC46ACE8C009ACE8C009ACE8C009DD
:10021000ACE8C0098D4670470446AFF30080204625
:10022000FFF7ABFF00487047140000200149182079
:10023000ABBEFEE72600020070472DE9F041024602
:1002400000250026002000230024002791F803C089
:100250000CF00F0591F803C00CF0100CBCF1000F6E
:1002600003D091F802C04CEA050591F800C0BCF13A
:10027000000F31D0146800202BE04FF0010C0CFA75
:1002800000F3B1F800C00CEA03069E4220D18300BF
:100290004FF00F0C0CFA03F7BC4305FA03FC4CEAD1
:1002A000040491F803C0BCF1280F06D14FF0010CF3
:1002B0000CFA00FCC2F814C00AE091F803C0BCF1CB
:1002C000480F05D14FF0010C0CFA00FCC2F810C029
:1002D000401C0828D1D31460B1F800C0BCF1FF0F56
:1002E00034DD546800202EE000F1080C4FF00108C6
:1002F00008FA0CF3B1F800C00CEA03069E4221D1C3
:1003000083004FF00F0C0CFA03F7BC4305FA03FC13
:100310004CEA040491F803C0BCF1280F05D100F1A8
:10032000080C08FA0CF8C2F8148091F803C0BCF16C
:10033000480F07D100F1080C4FF0010808FA0CF83B
:10034000C2F81080401C0828CED35460BDE8F0816C
:100350000161704729B1064AD2690243044BDA6150
:1003600004E0034AD2698243014BDA61704700001E
:100370000010024029B1064A92690243044B9A6177
:1003800004E0034A92698243014B9A61704700007E
:100390000010024030B500210022002400232D4D22
:1003A0006D6805F00C0121B1042905D0082923D17D
:1003B00005E0294D056022E0274D05601FE0254D31
:1003C0006D6805F47012234D6D6805F480340225C4
:1003D00005EB92421CB9214D554305600BE01D4DC4
:1003E0006D6805F400351DB11C4D5543056002E0F4
:1003F000194D5543056002E0174D056000BF00BF71
:10040000144D6D6805F0F0010909154D6B5C056828
:10041000DD4045600F4D6D6805F4E061090A104D3F
:100420006B5C4568DD4085600A4D6D6805F4605180
:10043000C90A0B4D6B5C4568DD40C560054D6D68B4
:1004400005F44041890B074D6B5CC568B5FBF3F5BE
:10045000056130BD0010024000127A0000093D0025
:10046000000000201000002010B500F001F810BDC1
:100470000CB50020019000903348006840F48030B3
:100480003149086000BF3048006800F40030009037
:100490000198401C0190009818B90198B0F5A06F20
:1004A000F1D12948006800F4003010B1012000901B
:1004B00001E0002000900098012843D12348006803
:1004C00040F01000214908600846006820F0030051
:1004D00008600846006840F0020008601A4840685A
:1004E000194948600846406848600846406840F43A
:1004F000806048600846406820F47C1048600846E8
:10050000406840F4E81048600846006840F0807099
:10051000086000BF0C48006800F000700028F9D0A7
:100520000948406820F003000749486008464068D1
:1005300040F00200486000BF0348406800F00C0033
:100540000828F9D10CBD0000001002400020024034
:1005500010B51348006840F00100114908600846D2
:100560004068104908400E494860084600680E4936
:1005700008400B4908600846006820F480200860A5
:100580000846406820F4FE0048604FF41F00886071
:10059000FFF76AFF4FF000600449086010BD0000DB
:1005A000001002400000FFF8FFFFF6FE08ED00E03B
:1005B00021B1828942F40052828104E082894DF6A1
:1005C000FF731A408281704702460020B1F5007F18
:1005D00000D100BF13880B400BB1012000E00020C8
:1005E000704700002DE9F04786B005460E4600240E
:1005F000A24600BFA1460027B08900B100BF2F4628
:100600002C8A4CF6FF700440F08804432C82AC899D
:100610004EF6F3100440B0883189084371890843CD
:100620000443AC81AC8A4FF6FF400440B0890443D8
:10063000AC8201A8FFF7AEFE1F48874202D1DDF869
:1006400010A001E0DDF80CA0A88900F4004040B142
:100650000AEBCA0000EB0A1031684900B0FBF1F860
:1006600007E00AEBCA0000EB0A1031688900B0FB12
:10067000F1F86420B8FBF0F004012009642101FBCB
:100680001089A88900F4004040B1322000EBC90075
:10069000B0FBF1F000F00700044308E0322000EB6B
:1006A00009106421B0FBF1F000F00F0004432C812D
:1006B00006B0BDE8F087000000380140C1F3080231
:1006C0008280704710B50446E07908B9362010BD25
:1006D000A1882068FFF73CFE0120F8E713B582B03F
:1006E00004469DF80C00F0B19DF80C0004281AD0C7
:1006F0009DF80C00282816D09DF80C00482812D030
:100700009DF80C0014280ED09DF80C0010280AD07B
:100710009DF80C001C2806D09DF80C00182802D06B
:10072000342004B010BD9DF80D00012809D09DF8BB
:100730000D00022805D09DF80D00032801D03520BA
:10074000EFE73F49206888421FD03E492068884231
:100750001BD03D49206888420BD1A088B0F5005FCE
:1007600013D0A088B0F5804F0FD0A088B0F5004F0F
:100770000BD036492068884205D1A088012804D0D2
:10078000A088022801D03320CBE72D492068884279
:1007900004D101210420FFF7EDFD37E0294920684D
:1007A000884204D101210820FFF7E4FD2EE026490C
:1007B0002068884204D101211020FFF7DBFD25E0ED
:1007C00022492068884204D101212020FFF7D2FD70
:1007D0001CE01F492068884204D101214020FFF716
:1007E000C9FD13E01B492068884204D10121802003
:1007F000FFF7C0FD0AE018492068884204D10121B2
:100800008015FFF7B7FD01E033208AE7A07918B122
:1008100001210846FFF7AEFDA088ADF804009DF861
:100820000C008DF807009DF80D008DF8060001A959
:100830002068FFF702FD0120E07100BF71E70000B2
:1008400000080140000C014000100140001401406C
:1008500000180140001C01400020014081807047C9
:100860000160704700218171C1717047F8B504467D
:100870000E4600253149206888421AD1012188039B
:10088000FFF778FD2E4904F10800FFF7E9FF4FF468
:10089000806104F10800FFF7E1FF294904F1140029
:1008A000FFF7DEFF4FF4007104F11400FFF7D6FFED
:1008B0001BE024492068884217D101214804FFF732
:1008C00049FD1F4904F10800FFF7CAFF082104F1A0
:1008D0000800FFF7C3FF1A4904F11400FFF7C0FF37
:1008E000042104F11400FFF7B9FF04208DF8000083
:1008F00003208DF8010004F108000099FFF7EEFED7
:100900000546012D01D02846F8BD18208DF80000BD
:1009100004F114000099FFF7E1FE0546012D01D016
:100920002846F1E731462068FFF75CFE0121206888
:10093000FFF73EFE0120207100BFE5E700380140CF
:10094000000801400044004070B504460D462946A9
:100950002068FFF7B3FE00BF80212068FFF734FE58
:100960000028F9D070BD0160704710B5044604F14D
:100970000800FFF777FFA0F1080404F11400FFF767
:1009800071FFA0F1140400202071204610BD00006A
:1009900000B591B009A8FFF7E8FF06A8FFF762FFCE
:1009A00010208DF8140001208DF815001B4906A8B1
:1009B000FFF756FF4FF4805106A8FFF74FFF06A838
:1009C0000599FFF78BFE4FF4E13001900020ADF860
:1009D00010000C20ADF80E000020ADF80C00ADF8B2
:1009E0000A00ADF808000E4909A8FFF7BCFF01A9ED
:1009F00009A8FFF73BFF06A8FFF764FE302109A80E
:100A0000FFF7A2FF0D2109A8FFF79EFF0A2109A801
:100A1000FFF79AFF002011B000BD0000000C01405C
:100A200000380140440A00080000002014000000C3
:100A300028010008580A000814000020640600007D
:100A40004401000800000000010203040102030445
:080A500006070809020406086C
:04000005080000ED02
:00000001FF
