:020000040800F2
:1000000078060020ED010008F5010008F70100085E
:10001000F9010008FB010008FD01000800000000D4
:10002000000000000000000000000000FF010008C8
:100030000102000800000000030200080502000899
:10004000070200080702000807020008070200086C
:10005000070200080702000807020008070200085C
:10006000070200080702000807020008070200084C
:10007000070200080702000807020008070200083C
:10008000070200080702000807020008070200082C
:10009000070200080702000807020008070200081C
:1000A000070200080702000807020008070200080C
:1000B00007020008070200080702000807020008FC
:1000C00007020008070200080702000807020008EC
:1000D00007020008070200080702000807020008DC
:1000E00007020008070200080702000800F002F8F3
:1000F00000F06DF80AA090E8000C82448344AAF155
:100100000107DA4501D100F062F8AFF2090EBAE852
:100110000F0013F0010F18BFFB1A43F0010318473B
:100120006C2400008C240000103A24BF78C878C1E9
:10013000FAD8520724BF30C830C144BF04680C60ED
:10014000704700000023002400250026103A28BF35
:1001500078C1FBD8520728BF30C148BF0B60704739
:100160006E2900F0CF80702900F07B81662902F0B3
:100170008F81652902F08C81672902F089816129CC
:1001800002F0888103681B0A28BF41F08001E92939
:1001900000F0CC80E42900F0C980F52900F0C68089
:1001A000EF2900F00181F82900F05581732900F052
:1001B000B286002070471FB500F0B2FE0400002098
:1001C000002102F04FF9E0601FBD10B510BD00F036
:1001D0005DFF1146FFF7EFFF02F0CAF800F07BFF6A
:1001E00003B4FFF7F2FF03BC00F0BCFF09488047EF
:1001F00009480047FEE7FEE7FEE7FEE7FEE7FEE709
:10020000FEE7FEE7FEE7FEE704480549054A064B20
:1002100070470000051C0008ED0000087800002071
:100220007806002078020020780200200FB47CB508
:100230000C0009AA009001D02044401E084B7B44CA
:1002400069460190089800F034FE05461CB1002074
:10025000694600F041FE28467CBC5DF814FB0000B6
:10026000A10C000070B5044685690068C10601D57F
:10027000302600E02026C00707D070BDD4E9012158
:1002800030469047206A401C20626D1EF6D570BD36
:1002900070B5044685690078C00707D170BDD4E900
:1002A000012120209047206A401C20626D1EF6D557
:1002B00070BD70B50C460546012A05D02878800629
:1002C00000D5EA69002302E0012305E05B1C9342AC
:1002D00002D2E05C0028F9D1A869E618C01AA8612A
:1002E000286A184428622846FFF7BCFF04E0D5E9D5
:1002F000012114F8010B9047B442F8D32846FFF7C8
:10030000C7FF70BD11680268006A530501D5087007
:100310000AE0D30501D5088006E0130603D5C2170D
:10032000C1E9000200E00860012070472DE9F041BA
:100330008046D21D22F007020025D2E90002F529ED
:1003400015A614D0011E72F1000106DA0023D0EBCD
:10035000030063EB020211A608E0D8F800108B0737
:1003600001D50FA602E0490701D50EA601251146C9
:10037000002408F1240704E000F06CF930323A550B
:10038000641C50EA0102F7D12B4632462146404612
:10039000BDE8F04100F0A3B9000000002D0000000E
:1003A0002B00000020000000D21D30B422F0070115
:1003B00000F12404D1E90023002108E002F0070540
:1003C000D208303542EA4372DB086554491C52EAD0
:1003D0000305F3D10468002307A2250708D504F01C
:1003E00020040C4304D0C469012304A2641EC46128
:1003F00030BC00F074B900000000000030000000C4
:10040000F0B40D460188090502D51A4C7C4402E07F
:10041000184C7C440E34002100F1240608E002F060
:100420000F071209E75D42EA03721B097754491C62
:1004300052EA0307F3D102780023120704D5702D86
:1004400006D009B1022311342246F0BC00F047B9AE
:1004500001231034F8E7D21D22F00703D3E900236B
:10046000CEE70368126843F0200303600823C361EA
:100470000023C5E7882000002DE9F05F8946044687
:100480004FF0000ADFF874B1FB44C0F820A020460A
:10049000E1688847002874D0252806D0D4E90121D6
:1004A0009047206A401C2062F1E700265F46204604
:1004B000E16888472028054607DB312D05D27819E9
:1004C00010F8200C08B10643F1E7B00701D526F07B
:1004D0000406C4F81CA00027C4F818A02A2D09D0CF
:1004E000284601F03EFF38B304EB8708303DC8F8DA
:1004F000185019E059F8041B204604EB870291615B
:10050000E1688847012F054618D1E069002820DA04
:1005100026F020061DE0D8F8180000EB800005EB5F
:1005200040003038C8F818002046E1688847054682
:1005300001F017FF0028EED1012F0AD02E2D08D18F
:100540002046E16888477F1C0546022F46F02006BA
:10055000C4DBA069002803DA404246F00106A0612E
:10056000F00701D026F010066C2D0BD0682D09D0B5
:100570004C2D39D06A2D35D0742D35D07A2D33D00D
:1005800016E038E0E1682F4620468847B842054625
:1005900009D16C2F26D04FF48060E16806432046D5
:1005A0008847054604E06C2F1AD04FF4807006434C
:1005B0000DB3A5F14100192802D8203546F4006694
:1005C0004A462946204626604E46FFF7C9FD80B1BF
:1005D00001280BD0F61D26F0070000F1080956E7A8
:1005E0004020E4E78020D8E70020D6E706F10409A0
:1005F0004DE7284652E7206ABDE8F09F342000000E
:100600004FF0000200B5134694469646203922BFAB
:10061000A0E80C50A0E80C50B1F12001BFF4F7AFF6
:10062000090728BFA0E80C5048BF0CC05DF804EBD8
:10063000890028BF40F8042B08BF704748BF20F846
:10064000022B11F0804F18BF00F8012B7047704744
:100650007047704730B5B0F10A024FEA900E71F161
:1006600000034EEA817EB0EB0E0061EB91014FEA90
:10067000101E4EEA017E10EB0E0041EB11114FEA05
:10068000102E4EEA016E10EB0E0041EB11214FEAE5
:10069000104E4EEA014E10EB0E0041EB1141401896
:1006A00041F100014FEAD00040EA41704FEAD10128
:1006B00010EB80054FEA810444EA907444EB010496
:1006C0006D1944EB0404521BA3414FF0000348BFD3
:1006D0000A3200D530BD401C41F1000130BD2DE98A
:1006E000F0470D4699469246044600F124080168F9
:1006F000880604D5E06921F01001216000E00120A6
:10070000A84201DD471B00E00027A1697A1902EB2E
:100710000900081AA0612078C00602D42046FFF71D
:10072000A1FD002608E0D4E901211AF8060090474F
:10073000206A401C761C20624E45F4DB2078C006FF
:100740000AD52046FFF78EFD06E0D4E901213020CE
:100750009047206A401C2062381EA7F10107F4DC94
:1007600007E0D4E9012118F805009047206A401CF1
:100770002062281EA5F10105F3DC2046FFF788FD65
:100780002078000602D50220BDE8F0870120FBE7B3
:1007900070472DE9FF4F0C461E464FF0FF378BB0D8
:1007A000D2E90001DDF860800A908A46C1F30A555B
:1007B00005B93D46002108464FF00000BAF1000F90
:1007C00000F4400005DA00EB80004FF4400101EA3C
:1007D00050004FEA9059B9F1010F00DDB9460A986F
:1007E00050EA4A000ED044F61050A5F2FF354543BA
:1007F0002F14B8F1000F1ED07542291E1EDDC9F15D
:1008000000021CE0B8F1010F4FF0000001D03021D0
:1008100003E0F24305E02154401CB042FBDB3046CC
:100820000022002121540B99C1F80880C1E9002061
:100830000FB0BDE8F08FBD1B6D1CDEE74A4600DA45
:10084000694206A800F0B0FB06AB93E8070003ABD3
:1008500083E8070050460A9900F08BFC8DE80700FA
:10086000A0F500501F3800900398002D09DD42F2DA
:100870001F014A46084403A90390684600F0EAFEB7
:1008800008E0A0F500504A461F3803A903906846C7
:1008900000F0F4FE8DE807000004000C03D04FF0D8
:1008A000FF30410800E01046B8F1000F03D00022ED
:1008B000009215461EE0751E05D4FFF7CBFE3032C0
:1008C00062556D1EF9D5B3460122084302D00022BD
:1008D0007F1C04E02078302801D100227F1E002AEE
:1008E000099786D01DE0112D07DAFFF7B3FE3032ED
:1008F00062556D1C50EA0102F5D1084302D0009800
:10090000C8B10EE00021681E05E0235C625C635400
:100910002254401E491C8142F7DBAB46A81B401EF7
:100920000990002004F80B000B98099AC0F8088081
:10093000C0E9002B7CE711264FF0000859E72DE9AC
:10094000F04F88460446D21D22F0070191B0D1E94C
:100950000001CDE90A0101F0F0FC02460B98C00F3E
:1009600001D02D2007E02068810701D52B2002E06F
:10097000202101EAC000032A099001D0072A05DBE3
:1009800003464146204600F0CFFA0BE1207880066E
:1009900001D5E06900E00620B8F1650F814606D078
:1009A000B8F1660F18D0B8F1670F70D131E00020B0
:1009B000B9F1110F009001DB112301E009F10103EE
:1009C0000AAA01A90CA8FFF7E4FEDDE90C700026D5
:1009D00009F10105834647E001204B4600904FF0A6
:1009E00000470AAA01A90CA8FFF7D3FEDDE90DB064
:1009F0000C995D46002610B909F101000D18B9EBFC
:100A0000050003D4C0F1FF3609F10105A5EB09008B
:100A10002BE0B9F1010F01DA4FF001090020B9F123
:100A2000110F0090484601DD112300E003460AAA99
:100A300001A90CA8FFF7ADFEDDE90C704D460026BC
:100A40008346207800070AD4AB4500DA5D4601A84A
:100A5000012D04DD411911F8011C302907D04F4543
:100A600002DA17F1040F04DA012082460FE06D1E4E
:100A7000EEE7002F02DCED1B3E4403E0781CA842A9
:100A800000DD7D1CB81B00F1010A4FF00047207803
:100A9000000703D4AA4501DB4FF0FF3A0021B7F16C
:100AA000004F0DF143088DF8431024D002202B2372
:100AB000002F01DA7F422D230A21021EA0F101003E
:100AC00000DC5FB197FBF1FC97FBF1F201FB1C7CB2
:100AD00017460CF1300C08F801CDEEE7A8F1010043
:100AE00003702188090501D5452100E06521A0F1A9
:100AF000010800F8011C09980FA9A1EB0807FF1DC8
:100B000000B10120411901EBEA70A1693844081ACB
:100B1000401EA0612078C00602D42046FFF7A2FB49
:100B2000099828B1D4E901219047206A401C20622D
:100B30002078C00622D52046FFF794FB1EE0002E49
:100B400004DBB34502DD01A8805D00E03020D4E97C
:100B500001219047206A401C2062761CAAF1010006
:100B60005FEA000A0AD100F0DBF9C0680168405C66
:100B7000D4E901219047206A401C2062281EA5F17B
:100B80000105DCDC07E0D4E9012118F8010B9047EE
:100B9000206A401C2062381EA7F10107F3DC2046C2
:100BA000FFF776FB032011B043E600002DE9F04F7C
:100BB00004460D46D21D22F0070089B0D0E900920C
:100BC00048461746394601F0B8FB0246F80F01D0F7
:100BD0002D2307E02068810701D52B2302E0202187
:100BE00001EAC0038DF820300BB1012000E00020A5
:100BF000032A824601D0072A04DB2946204600F05A
:100C000093F93DE12078800601D40D2500E0E569E7
:100C1000C7F30A560D2D49DA00214FEA175B084643
:100C20004FF00000002F00F4400007DA00EB8000D6
:100C30004FF4400100EBD07001EA600081150129FA
:100C400001DD4FF0FF3100224FEA850CBCF1180F97
:100C500006D31346ACF118004FF08052C24003E0B7
:100C60004FF4801323FA0CF30CF10C0CBCF1200FA1
:100C700004D3ACF1200C09FA0CF001E007FA0CF0F7
:100C800000294FF0004801DD18B90FE00ED14045B2
:100C90000CD319EB02095F4121B9404502D19F43B2
:100CA00029EA0209BBEB175F00D0761C20880005FB
:100CB00002D57B48784402E079487844193808AA7C
:100CC000302302F80A30037C0AF10101002E0AF1F8
:100CD000020A53546A4602DC4FF0300101E04FF043
:100CE00031014FF001088DF8001002D0A6F2FF3656
:100CF00003E059EA470100D06A4E002D02DC21785A
:100D0000090704D54FF002082E218DF80110C446C2
:100D100000210BE0C7F303433F01C35C491C6D1E78
:100D200002F80830052908F1010801DA002DF1DC8C
:100D300000210CE000EB1973491C1B786D1E08297B
:100D400002F808304FEA091908F1010801DA002D0C
:100D5000F0DC2178890602D514E0A8F10108E0450D
:100D600005DD02EB080111F8011C3029F5D0B8F1BE
:100D7000000F07DD02EB080111F8011C2E2901D13B
:100D8000A8F10108002D05DD3E2102F808106D1EB6
:100D900008F10108407C002E02F8080008F1010863
:100DA00004DA2D20764202F8080002E02B2002F837
:100DB00008000A214FF47A70864208F101080BDB23
:100DC00096FBF0F3303302F8083096FBF0F308F1AD
:100DD000010800FB136601E0642E0CDB642096FB27
:100DE000F0F3303302F8083096FBF0F308F1010815
:100DF00000FB136601E00A2E06DB96FBF1F03030B3
:100E000002F8080008F1010896FBF1F001FB106000
:100E1000303002F80800A16908F1010808EB05026A
:100E200002EB0A00081AA0612078C00602D420460E
:100E3000FFF718FA216A08AE01EB0A00206204E00D
:100E4000D4E9012116F8010B9047BAF1010AF7D253
:100E50002078C00602D52046FFF704FA6E4609E066
:100E600016F8010B3E280FD0D4E901219047206AE3
:100E7000401C2062B8F10108F2D22046FFF708FAC0
:100E800009B00320BDE8F08F206A2844206203E007
:100E9000D4E90121302090476D1EEBD3F8E7000024
:100EA0002C18000002FCFFFF01694A1C026108784F
:100EB000704700B58FB0CDE901310021059105499A
:100EC0007944CDE9031011466846FFF7D5FA0FB013
:100ED00000BD0000E5FFFFFF0A6802F8010B0A6091
:100EE0007047D1E900239A4202D2531C0B60107064
:100EF000704710B5436913B1AFF3008001E0FFF70D
:100F0000D8F9012010BD127800F124010A700022E6
:100F10004A700122EDE711684FF0FF32E9E7000067
:100F200000487047340000202DE9F0411F46044678
:100F300003260168072A01F4006004DB08B116A546
:100F400005E016A503E008B115A500E015A521F000
:100F500010002060A069C01EA0610FB1401EA061FA
:100F60002046FFF77FF94FB1D4E901213846904779
:100F7000206A401C2062C01C206206E0206AFAE75A
:100F8000D4E9012115F8010B9047761EF8D22046CE
:100F9000FFF77EF9BDE8F0814E414E006E616E00B4
:100FA000494E4600696E66002DE9F04781461646B7
:100FB0008AB0334878440DC88DE80D003048784435
:100FC000801C03AC0DC884E80D0041F69B3008443A
:100FD000372190FBF1F290FBF1F5A5F1800501FBC3
:100FE00012041B3C02D56442012000E00020DFF81F
:100FF00090A080460027FA44AAF1BE0A0DE0E0075F
:1010000009D03246684607EB47010AEB810100F040
:1010100035FB8DE8070064107F1C002CEFD1184FC2
:101020007F44AC3F18E0E80714D007EB04100DF143
:10103000180A90E80E008AE80E00C068F04201D15C
:1010400098190890324606A903A800F017FB03ABD5
:1010500083E807006D10641C002DE4D13246694618
:10106000B8F1000F03A802D000F0F4FA01E000F09C
:1010700005FBC9E90001C9F808200AB0BDE8F087FE
:10108000BC15000000487047140000207546FFF7AB
:10109000F9FFAE4605006946534620F00700854635
:1010A00018B020B5FFF7B0F8BDE820404FF00006BB
:1010B0004FF000074FF000084FF0000B21F0070140
:1010C000AC46ACE8C009ACE8C009ACE8C009ACE883
:1010D000C0098D4670470446AFF300802046FFF7F5
:1010E0007FF800004FF0013C50F8042B51F8043B0E
:1010F0009A4221D1A2EB0C03934313EACC1317D1EC
:1011000050F8042B51F8043B9A4215D1A2EB0C0382
:10111000934313EACC130BD150F8042B51F8043B42
:101120009A4209D1A2EB0C03934313EACC13DBD010
:101130004FF00000704700BFD01A01BAB1FA81F138
:1011400001F0180122FA01F0CB40C1F12001DBB21D
:10115000C0B2C01A2CFA01F3D11A914311EAC3119B
:10116000E6D1704701491820ABBEFEE72600020019
:1011700070475FEA400C08BF91F0000F4FEA8C23E4
:101180004FEAC12243EA51514FEA1C5018BF00F503
:10119000F0404FEA300018BF41F000415FEA6C5C5C
:1011A00000F02980BCF1FF3F08BF40F0804070474D
:1011B000130C06BF12044FF0100C4FF0000C130E6E
:1011C00004BF12020CF1080C130F04BF12010CF142
:1011D000040C930F04BF92000CF1020CD30F04BF58
:1011E00052000CF1010C11464FF00002A0F11F005B
:1011F000A0EB0C00704711F0004F08BF704731F0B2
:1012000000413FF4D5AF0B0C06BF09044FF0100CA2
:101210004FF0000C0B0E04BF09020CF1080C0B0F71
:1012200004BF09010CF1040C8B0F04BF89000CF101
:10123000020CCB0F04BF49000CF1010CCCF12003D0
:10124000A0EB0C0022FA03F302FA0CF241EA0301CC
:1012500000F10100704720F07F4C80EA030023F08A
:101260007F47ACEB070303F57C5300F0004003F12C
:10127000FF032DE980494FEA154B09B44FEA1443A7
:1012800025EA0B4E24EA03480FF2042606EB132747
:1012900049083E785FEA320203FB0667C7F500079C
:1012A00007FB06F64FEA54374FEAD64606F1020628
:1012B00007FB066CCCF1005C4FEA1C472CEA074C9C
:1012C00007FB06F40CFB06F504EB15464FEA9616F1
:1012D00034BF00204FF000404FEAD13706FB07FC37
:1012E0004FEA1C4C0CFB0BF7D21B03FB0CF761EB1A
:1012F00007010CFB0EF7B0EB074072EB17420CFB3B
:1013000008F734BFA2EB0742B2EB074261EB17418B
:101310004FEA0C444FEA910706FB07FC4FEA1C4CCE
:101320000CFB0BF7B0EBC74072EB573203FB0CF72B
:1013300034BFA2EBC742B2EBC74261EB57310CFBA3
:101340000EF7B0EBC70072EB57720CFB08F734BF17
:10135000A2EBC702B2EBC70261EB5771039F4FEAE2
:10136000816141EA921104EBCC044FEAD1374FEA94
:10137000826206FB07FC42EA90124FEA80604FEA65
:101380001C4C0CFB0BF7D21B03FB0CF761EB0701AA
:101390000CFB0EF7B0EB074072EB17420CFB08F7A3
:1013A00034BFA2EB0742B2EB074261EB17414FEAB1
:1013B0008C554FEA910704EB9C2406FB07FC4FEA8F
:1013C0001C4C0CFB0BF7B0EBC74072EB573203FB26
:1013D0000CF734BFA2EBC742B2EBC74261EB573107
:1013E0000CFB0EF7B0EBC70072EB57720CFB08F763
:1013F00034BFA2EBC702B2EBC70261EB577115EB2A
:101400004C254FEA816141EA92114FEA82624FEA2C
:10141000D13742EA901206FB07FC44F100044FEA80
:1014200080604FEA1C4C0CFB0BF7D21B03FB0CF744
:1014300061EB07010CFB0EF7B0EB074072EB1742B4
:101440000CFB08F734BFA2EB0742B2EB074261EB9B
:10145000174115EB1C154FEA813141EA92414FEAE1
:10146000823242EA90424FEA80304FEA0C7644F1F1
:10147000000448EA03434EEA0B484FF0000EB2EB7B
:10148000080C71EB030724BF624639464EEB0E0E83
:101490004FF0000B0018524149414BEB0B0BB2EBE4
:1014A000080C71EB03077BF1000B24BF6246394641
:1014B0004EEB0E0E4FF0000B0018524149414BEB22
:1014C0000B0BB2EB080C71EB03077BF1000B24BF95
:1014D000624639464EEB0E0E51EA020718BF46F03F
:1014E000010616EB0E7655F1000254F1000103D50A
:1014F000BDE88901BDE80088BDE88901BDE8004874
:10150000B619524141EB0101A3F1010370478080FC
:101510007F7E7D7C7B7A797877767675747372714D
:1015200071706F6E6E6D6C6C6B6A6A696868676605
:1015300066656464636362616160605F5F5E5E5D97
:101540005D5C5C5B5B5A5A5959585857575656550B
:1015500055555454535352525251515050504F4F6D
:101560004F4E4E4D4D4D4C4C4C4B4B4B4A4A4A49BD
:101570004949484848474747474646464545454400
:101580004444444343434342424242414141002B8D
:1015900026D4770021D01CB54FEA370703B44FF0AB
:1015A00010004FF010014FF000000FBCBDE81040DC
:1015B0000BF1010BBBF1010F08BF5FEA170722BF58
:1015C00012F1010211F101014FF0004143F100035A
:1015D00000F0004043EA00007047F9D35708DAE70B
:1015E00046EA064613F1400F4FEA16461FDD13F197
:1015F000200FDFBF16430A46002120335B42C8D0CC
:10160000C3F1200746EA064602FA07F74FEA1646F4
:1016100046EA0706C3F1200722FA03F201FA07F7A8
:1016200021FA03F14FF0000342EA0702B1E746EA6C
:10163000020646EA06464FEA164646EA0106BCBFDF
:1016400046EA0646360C4FF000034FF000024FF01A
:1016500000019EE72DE9C048934630B491E8380078
:1016600007C831EA400C48BF34EA430C03D5FFF702
:10167000F2FDFFF78CFFF0BCBDE800882DE9C04803
:10168000934630B491E8380007C810F0804F08BF87
:1016900013F0804F03D100F005F8FFF778FFF0BC9E
:1016A000BDE8008820F07F4780EA030023F07F4CEC
:1016B00007EB0C03A3F57C5300F00040A3F1FE03FD
:1016C00092F0000F00F0B38095F0000F00F07780EB
:1016D0002DE901494FEA11404FEA144621EA00483A
:1016E00000FB06FC24EA064708FB06F607FB08F8A1
:1016F00000FB07F718EB06484CEB164C4FEA124B71
:1017000018EB07484FEA15464CEB174022EA0B4E00
:101710000BFB06FC25EA06470EFB06F607FB0EFE52
:101720000BFB07F71EEB064E4CEB164C4FF000067A
:101730001EEB074E4CEB174B18EB0B0840F100006B
:1017400018EB0E0B58EB000840F100008F1A4FF019
:1017500000013CBFC943661B14BFB5EB040C00215C
:101760003CBFC943F61B4FEA17444EEA8E0E27EAE8
:1017700004454FEA1C4704FB07622CEA074C05FBB3
:1017800007F70CFB05F604FB0CFC16EB074642EBD7
:10179000174216EB0C4642EB1C421BEB060658EBBD
:1017A0000202414146EA9E0601D5BDE80189B6190B
:1017B000524141EB0101A3F10103BDE801894FEA68
:1017C00014454FEA114724EA054621EA074C05FB78
:1017D00007F406FB07F70CFB06F105FB0CFC11EB0D
:1017E000074144EB17444FEA124711EB0C4144EB1D
:1017F0001C4422EA074C05FB07F206FB07F70CFB2B
:1018000006F605FB0CFC16EB074642EB174216EBFF
:101810000C4642EB1C456A1854F1000148BF704762
:10182000B619524141EB0101A3F10103704795F054
:10183000000F37D04FEA11424FEA144721EA02461F
:1018400024EA074C02FB07F106FB07F70CFB06F442
:1018500002FB0CFC14EB074441EB17414FEA154720
:1018600014EB0C4441EB1C4125EA074C02FB07F545
:1018700006FB07F70CFB06F602FB0CFC16EB074613
:1018800045EB174516EB0C4645EB1C42121951F17E
:10189000000148BF7047B619524141EB0101A3F165
:1018A000010370474FEA14454FEA114724EA054601
:1018B00021EA074C05FB07F106FB07F70CFB06F2D4
:1018C0004FF0000605FB0CFC12EB074241EB174101
:1018D00012EB0C4251EB1C4148BF7047921841EB90
:1018E0000101A3F1010370472DE9F04102460025F3
:1018F0000026002000230024002791F803C00CF0EC
:101900000F0591F803C00CF0100CBCF1000F03D0D0
:1019100091F802C04CEA050591F800C0BCF1000F37
:1019200031D0146800202BE04FF0010C0CFA00F3CA
:10193000B1F800C00CEA03069E4220D183004FF0AC
:101940000F0C0CFA03F7BC4305FA03FC4CEA040441
:1019500091F803C0BCF1280F06D14FF0010C0CFA2E
:1019600000FCC2F814C00AE091F803C0BCF1480FB3
:1019700005D14FF0010C0CFA00FCC2F810C0401C5D
:101980000828D1D31460B1F800C0BCF1FF0F34DDDA
:10199000546800202EE000F1080C4FF0010808FA0E
:1019A0000CF3B1F800C00CEA03069E4221D183007B
:1019B0004FF00F0C0CFA03F7BC4305FA03FC4CEA9A
:1019C000040491F803C0BCF1280F05D100F1080C04
:1019D00008FA0CF8C2F8148091F803C0BCF1480F63
:1019E00007D100F1080C4FF0010808FA0CF8C2F812
:1019F0001080401C0828CED35460BDE8F0814161BE
:101A0000704701617047000029B1064AD26902435C
:101A1000044BDA6104E0034AD2698243014BDA6184
:101A2000704700000010024029B1064A9269024343
:101A3000044B9A6104E0034A92698243014B9A6124
:101A4000704700000010024030B500210022002441
:101A500000232D4D6D6805F00C0121B1042905D03E
:101A6000082923D105E0294D056022E0274D0560B6
:101A70001FE0254D6D6805F47012234D6D6805F467
:101A80008034022505EB92421CB9214D5543056077
:101A90000BE01D4D6D6805F400351DB11C4D55431F
:101AA000056002E0194D5543056002E0174D0560E1
:101AB00000BF00BF144D6D6805F0F0010909154D18
:101AC0006B5C0568DD4045600F4D6D6805F4E061B5
:101AD000090A104D6B5C4568DD4085600A4D6D68F4
:101AE00005F46051C90A0B4D6B5C4568DD40C5606B
:101AF000054D6D6805F44041890B074D6B5CC56869
:101B0000B5FBF3F5056130BD0010024000127A000C
:101B100000093D00000000201000002010B500F07A
:101B200001F810BD0CB5002001900090334800680A
:101B300040F480303149086000BF3048006800F44C
:101B4000003000900198401C0190009818B901984D
:101B5000B0F5A06FF1D12948006800F4003010B151
:101B60000120009001E0002000900098012843D15E
:101B70002348006840F010002149086008460068CA
:101B800020F0030008600846006840F0020008608A
:101B90001A48406819494860084640684860084645
:101BA000406840F4806048600846406820F47C103B
:101BB00048600846406840F4E810486008460068FD
:101BC00040F08070086000BF0C48006800F00070B2
:101BD0000028F9D00948406820F003000749486010
:101BE0000846406840F00200486000BF0348406873
:101BF00000F00C000828F9D10CBD000000100240D4
:101C00000020024010B51348006840F0010011495F
:101C1000086008464068104908400E494860084678
:101C200000680E4908400B4908600846006820F427
:101C3000802008600846406820F4FE0048604FF4A9
:101C40001F008860FFF76AFF4FF0006004490860DA
:101C500010BD0000001002400000FFF8FFFFF6FE7C
:101C600008ED00E001F40072B2F5007F00D100BF82
:101C7000CA430280704721B1828942F400528281B6
:101C800004E082894DF6FF731A4082817047024654
:101C90000020B1F5007F00D100BF13880B400BB1CD
:101CA000012000E0002070472DE9F04786B005468E
:101CB0000E460024A24600BFA1460027B08900B10D
:101CC00000BF2F462C8A4CF6FF700440F088044376
:101CD0002C82AC894EF6F3100440B0883189084359
:101CE000718908430443AC81AC8A4FF6FF4004403D
:101CF000B0890443AC8201A8FFF7A6FE1F488742C3
:101D000002D1DDF810A001E0DDF80CA0A88900F4F4
:101D1000004040B10AEBCA0000EB0A1031684900EC
:101D2000B0FBF1F807E00AEBCA0000EB0A103168DB
:101D30008900B0FBF1F86420B8FBF0F00401200941
:101D4000642101FB1089A88900F4004040B13220D1
:101D500000EBC900B0FBF1F000F00700044308E01D
:101D6000322000EB09106421B0FBF1F000F00F000D
:101D700004432C8106B0BDE8F08700000038014024
:101D8000C1F308028280704710B50446E07908B9B3
:101D9000362010BDA1882068FFF733FE0120F8E748
:101DA00013B582B004469DF80C00F0B19DF80C000C
:101DB00004281AD09DF80C00282816D09DF80C0095
:101DC000482812D09DF80C0014280ED09DF80C0065
:101DD00010280AD09DF80C001C2806D09DF80C0095
:101DE000182802D0342004B010BD9DF80D00012841
:101DF00009D09DF80D00022805D09DF80D0003289C
:101E000001D03520EFE73F49206888421FD03E4986
:101E1000206888421BD03D49206888420BD1A088A9
:101E2000B0F5005F13D0A088B0F5804F0FD0A08828
:101E3000B0F5004F0BD036492068884205D1A08804
:101E4000012804D0A088022801D03320CBE72D49F7
:101E50002068884204D101210420FFF7E5FD37E026
:101E600029492068884204D101210820FFF7DCFDC0
:101E70002EE026492068884204D101211020FFF776
:101E8000D3FD25E022492068884204D10121202089
:101E9000FFF7CAFD1CE01F492068884204D10121D8
:101EA0004020FFF7C1FD13E01B492068884204D1A0
:101EB00001218020FFF7B8FD0AE018492068884218
:101EC00004D101218015FFF7AFFD01E033208AE73F
:101ED000A07918B101210846FFF7A6FDA088ADF84A
:101EE00004009DF80C008DF807009DF80D008DF89A
:101EF000060001A92068FFF7F7FC0120E07100BF90
:101F000071E7000000080140000C01400010014092
:101F10000014014000180140001C01400020014055
:101F200010B50446E07908B9362010BDA1882068B4
:101F3000FFF765FD0120F8E7818070470160704779
:101F400000218171C1717047F8B504460E46002525
:101F50003149206888421AD101218803FFF764FDC6
:101F60002E4904F10800FFF7E9FF4FF4806104F106
:101F70000800FFF7E1FF294904F11400FFF7DEFF35
:101F80004FF4007104F11400FFF7D6FF1BE0244961
:101F90002068884217D101214804FFF735FD1F4909
:101FA00004F10800FFF7CAFF082104F10800FFF759
:101FB000C3FF1A4904F11400FFF7C0FF042104F124
:101FC0001400FFF7B9FF04208DF8000003208DF8FE
:101FD000010004F108000099FFF7E2FE0546012D1B
:101FE00001D02846F8BD18208DF8000004F1140037
:101FF0000099FFF7D5FE0546012D01D02846F1E7EF
:1020000031462068FFF750FE01212068FFF733FEBC
:102010000120207100BFE5E70038014000080140C1
:10202000004400400FB42DE9F04FEFB04FF0000B2B
:102030004FF4C8710BA8FEF7E3FA142106A8FEF7C7
:10204000DFFA7AA8039045E179980078252872D1C3
:102050004FF0000A7998007806A901F80A007998EB
:10206000401C79900AF1010A09E07998007806A9E4
:1020700001F80A007998401C79900AF1010A7998D0
:102080000078002843D07998007825283FD07998A7
:10209000007863283BD079980078732837D07998F6
:1020A0000078642833D07998007869282FD07998FF
:1020B00000786F282BD079980078782827D07998E5
:1020C0000078582823D07998007875281FD07998FF
:1020D000007866281BD079980078462817D0799820
:1020E0000078652813D07998007845280FD0799822
:1020F000007867280BD079980078472807D079981E
:1021000000786E2803D0799800787028ADD179983E
:10211000007806A901F80A0079980078652876D039
:1021200011DC472874D007DC25281DD0452870D045
:10213000462822D19AE0C4E058286ED063283FD0C8
:102140006428F6D13DE06F2865D006DC662879D09A
:10215000672878D06928ECD134E073280ED0752830
:102160005CD07828E5D157E02521789800F0BEF8BA
:102170000BF1010B7998401C7990A1E0039800685D
:1021800004900398001D039006AA4FF4C8710BA891
:10219000049BFEF74BF805904FF0000A09E00BA8EE
:1021A00010F80A10789800F0A1F80BF1010B0AF171
:1021B000010A05988245F2DB7998401C79907FE00E
:1021C00000BF00BF0398C01D20F007000390D0E9B6
:1021D00000670830039006AA17210BA8CDE9006715
:1021E000FEF724F805904FF0000A09E00BA810F85C
:1021F0000A10789800F07AF80BF1010B0AF1010A45
:1022000005988245F2DB7998401C799058E02EE0E1
:1022100030E02DE001E000BF00BF00BF0398C01D0B
:1022200020F007000390D0E900450830039006AA8B
:1022300017210BA8CDE90045FDF7F8FF05904FF0F9
:10224000000A0BE011E014E00BA810F80A107898CF
:1022500000F04CF80BF1010B0AF1010A05988245D8
:10226000F2DB7998401C79902AE000BF00BF00BFE4
:1022700000BF00BF0398C01D20F007000390D0E905
:1022800000890830039006AA4FF4C8710BA8CDE965
:102290000089FDF7CBFF05904FF0000A09E00BA87D
:1022A00010F80A10789800F021F80BF1010B0AF1F0
:1022B000010A05988245F2DB7998401C799000BFAD
:1022C00008E0799810F8011B7990789800F00EF8E2
:1022D0000BF1010B7998007800287FF4B5AE0390DC
:1022E00058466FB0BDE8F00F5DF814FB70B50446BA
:1022F0000D4640212068FFF7B5FC29462068FFF70E
:102300003FFD00BF40212068FFF7C1FC0028F9D045
:1023100070BD0160704710B5044604F10800FFF776
:102320000FFEA0F1080404F11400FFF709FEA0F16C
:10233000140400202071204610BD490050EAC1203D
:1023400018BF04204A0D18BF40F0010040F2FF7290
:10235000B2EB515F08BF40F00200012808BF052022
:10236000704730380A2801D201207047002070479A
:1023700090B008A8FFF7CFFF05A8FFF7E1FD1020F8
:102380008DF8100001208DF811002B4905A8FFF7EA
:10239000D5FD4FF4805105A8FFF7CEFD05A804999F
:1023A000FFF7FEFC4FF4E13000900020ADF80C0088
:1023B0000C20ADF80A000020ADF80800ADF80600CA
:1023C000ADF804001D4908A8FFF7A3FF694608A857
:1023D000FFF7BAFD05A8FFF7D7FC302108A8FFF7E3
:1023E00085FF0D2108A8FFF781FF0A2108A8FFF744
:1023F0007DFF13A108A8009AFFF714FE1BE000243C
:1024000000E0641C13488442FBDB05A8FFF788FD4D
:10241000224611A108A8FFF705FE002400E0641C75
:102420000C488442FBDB05A8FFF7AEFC22460AA15C
:1024300008A8FFF7F7FDE2E7000C01400038014073
:102440004261756420526174652069733A20257574
:102450000D0A000040420F0069203D2025640D0A4E
:102460000000000010B500290AD00878002807D025
:1024700005487844FEF736FE002801D0002010BD44
:102480000248784410BD00003A010000320100000B
:10249000FEF755BAFEF78ABB303132333435363762
:1024A0003839414243444546403058003031323398
:1024B0003435363738396162636465664030780098
:1024C00004000008000000000000000200010000FD
:1024D00010303132333435363738396162636465F0
:1024E000667870003031323334353637383941420E
:1024F000434445465850000002400000000000A040
:102500000000000005400000000000C800000000BE
:102510000C4000000000409C00000000194000003A
:102520000020BCBE0000000034400000BFC91B8E6C
:1025300000000004B5400000504BCFD06607E2CF4A
:10254000010000006C4100003E8251AADFEEA7347A
:1025500001000000D9420000DCB5A0E23A301F972C
:10256000FFFFFFFFB4450000FD25A0C8E9A3C14F50
:10257000FFFFFFFFFF3F00000000008000000000A1
:10258000FF3F00000000008000000000C825000898
:10259000000000201400000028010008DC250008CD
:1025A0001400002064060000440100081C00000024
:1025B00043000000F8FFFFFF0C0000000E000000C9
:1025C0000F0000002E0000000000000001020304C4
:0C25D000010203040607080902040608C3
:04000005080000ED02
:00000001FF
